{"abi":[{"type":"constructor","inputs":[{"name":"owner","type":"address","internalType":"address"},{"name":"usdc","type":"address","internalType":"address"},{"name":"usdt","type":"address","internalType":"address"},{"name":"weth","type":"address","internalType":"address"},{"name":"wbtc","type":"address","internalType":"address"},{"name":"creAddress","type":"address","internalType":"address"}],"stateMutability":"nonpayable"},{"type":"function","name":"CRE","inputs":[],"outputs":[{"name":"","type":"address","internalType":"address"}],"stateMutability":"view"},{"type":"function","name":"USDC","inputs":[],"outputs":[{"name":"","type":"address","internalType":"contract IERC20"}],"stateMutability":"view"},{"type":"function","name":"USDT","inputs":[],"outputs":[{"name":"","type":"address","internalType":"contract IERC20"}],"stateMutability":"view"},{"type":"function","name":"WBTC","inputs":[],"outputs":[{"name":"","type":"address","internalType":"contract IERC20"}],"stateMutability":"view"},{"type":"function","name":"WETH","inputs":[],"outputs":[{"name":"","type":"address","internalType":"contract IERC20"}],"stateMutability":"view"},{"type":"function","name":"acceptOwnership","inputs":[],"outputs":[],"stateMutability":"nonpayable"},{"type":"function","name":"choseToken","inputs":[{"name":"token","type":"uint8","internalType":"enum IOrbitPay.Token"}],"outputs":[{"name":"token_","type":"address","internalType":"contract IERC20"}],"stateMutability":"nonpayable"},{"type":"function","name":"getUserInfo","inputs":[{"name":"user","type":"address","internalType":"address"}],"outputs":[{"name":"userInfo_","type":"tuple","internalType":"struct IOrbitPay.UserInfo","components":[{"name":"lastPaymentDate","type":"uint40","internalType":"uint40"},{"name":"token","type":"address","internalType":"contract IERC20"}]}],"stateMutability":"view"},{"type":"function","name":"owner","inputs":[],"outputs":[{"name":"","type":"address","internalType":"address"}],"stateMutability":"view"},{"type":"function","name":"pay","inputs":[{"name":"users","type":"address[]","internalType":"address[]"},{"name":"amounts","type":"uint256[]","internalType":"uint256[]"}],"outputs":[],"stateMutability":"nonpayable"},{"type":"function","name":"pendingOwner","inputs":[],"outputs":[{"name":"","type":"address","internalType":"address"}],"stateMutability":"view"},{"type":"function","name":"renounceOwnership","inputs":[],"outputs":[],"stateMutability":"nonpayable"},{"type":"function","name":"transferOwnership","inputs":[{"name":"newOwner","type":"address","internalType":"address"}],"outputs":[],"stateMutability":"nonpayable"},{"type":"event","name":"OwnershipTransferStarted","inputs":[{"name":"previousOwner","type":"address","indexed":true,"internalType":"address"},{"name":"newOwner","type":"address","indexed":true,"internalType":"address"}],"anonymous":false},{"type":"event","name":"OwnershipTransferred","inputs":[{"name":"previousOwner","type":"address","indexed":true,"internalType":"address"},{"name":"newOwner","type":"address","indexed":true,"internalType":"address"}],"anonymous":false},{"type":"event","name":"PaymentExecuted","inputs":[{"name":"user","type":"address","indexed":true,"internalType":"address"},{"name":"amount","type":"uint256","indexed":false,"internalType":"uint256"},{"name":"token","type":"address","indexed":false,"internalType":"contract IERC20"}],"anonymous":false},{"type":"event","name":"TokenChosen","inputs":[{"name":"user","type":"address","indexed":true,"internalType":"address"},{"name":"token","type":"address","indexed":true,"internalType":"contract IERC20"}],"anonymous":false},{"type":"error","name":"IOrbitPayAlreadyPaid","inputs":[]},{"type":"error","name":"IOrbitPayInputLengthMismatch","inputs":[]},{"type":"error","name":"IOrbitPayInvalidToken","inputs":[]},{"type":"error","name":"OwnableInvalidOwner","inputs":[{"name":"owner","type":"address","internalType":"address"}]},{"type":"error","name":"OwnableUnauthorizedAccount","inputs":[{"name":"account","type":"address","internalType":"address"}]}],"bytecode":{"object":"0x610120604052348015610010575f5ffd5b50604051611a0c380380611a0c83398181016040528101906100329190610318565b855f73ffffffffffffffffffffffffffffffffffffffff168173ffffffffffffffffffffffffffffffffffffffff16036100a3575f6040517f1e4fbdf700000000000000000000000000000000000000000000000000000000815260040161009a91906103b0565b60405180910390fd5b6100b2816101c360201b60201c565b508473ffffffffffffffffffffffffffffffffffffffff1660808173ffffffffffffffffffffffffffffffffffffffff16815250508373ffffffffffffffffffffffffffffffffffffffff1660a08173ffffffffffffffffffffffffffffffffffffffff16815250508273ffffffffffffffffffffffffffffffffffffffff1660c08173ffffffffffffffffffffffffffffffffffffffff16815250508173ffffffffffffffffffffffffffffffffffffffff1660e08173ffffffffffffffffffffffffffffffffffffffff16815250508073ffffffffffffffffffffffffffffffffffffffff166101008173ffffffffffffffffffffffffffffffffffffffff16815250505050505050506103c9565b60015f6101000a81549073ffffffffffffffffffffffffffffffffffffffff02191690556101f6816101f960201b60201c565b50565b5f5f5f9054906101000a900473ffffffffffffffffffffffffffffffffffffffff169050815f5f6101000a81548173ffffffffffffffffffffffffffffffffffffffff021916908373ffffffffffffffffffffffffffffffffffffffff1602179055508173ffffffffffffffffffffffffffffffffffffffff168173ffffffffffffffffffffffffffffffffffffffff167f8be0079c531659141344cd1fd0a4f28419497f9722a3daafe3b4186f6b6457e060405160405180910390a35050565b5f5ffd5b5f73ffffffffffffffffffffffffffffffffffffffff82169050919050565b5f6102e7826102be565b9050919050565b6102f7816102dd565b8114610301575f5ffd5b50565b5f81519050610312816102ee565b92915050565b5f5f5f5f5f5f60c08789031215610332576103316102ba565b5b5f61033f89828a01610304565b965050602061035089828a01610304565b955050604061036189828a01610304565b945050606061037289828a01610304565b935050608061038389828a01610304565b92505060a061039489828a01610304565b9150509295509295509295565b6103aa816102dd565b82525050565b5f6020820190506103c35f8301846103a1565b92915050565b60805160a05160c05160e051610100516115c76104455f395f8181610251015261066201525f818161056b01528181610ae30152610b8101525f8181610772015281816109f20152610a9001525f818161079601528181610900015261099e01525f81816107270152818161080e01526108ac01526115c75ff3fe608060405234801561000f575f5ffd5b50600436106100cd575f3560e01c806389a302711161008a578063c54e44eb11610064578063c54e44eb146101c7578063e30c3978146101e5578063e851b6e514610203578063f2fde38b14610233576100cd565b806389a302711461016d5780638da5cb5b1461018b578063ad5c4648146101a9576100cd565b8063084ce708146100d15780634dede3de146100ed5780636386c1c71461010b578063653bba641461013b578063715018a61461015957806379ba509714610163575b5f5ffd5b6100eb60048036038101906100e69190611149565b61024f565b005b6100f5610569565b604051610102919061121a565b60405180910390f35b61012560048036038101906101209190611233565b61058d565b60405161013291906112b9565b60405180910390f35b610143610660565b60405161015091906112e1565b60405180910390f35b610161610684565b005b61016b610697565b005b610175610725565b604051610182919061121a565b60405180910390f35b610193610749565b6040516101a091906112e1565b60405180910390f35b6101b1610770565b6040516101be919061121a565b60405180910390f35b6101cf610794565b6040516101dc919061121a565b60405180910390f35b6101ed6107b8565b6040516101fa91906112e1565b60405180910390f35b61021d6004803603810190610218919061131d565b6107e0565b60405161022a919061121a565b60405180910390f35b61024d60048036038101906102489190611233565b610c3b565b005b7f000000000000000000000000000000000000000000000000000000000000000073ffffffffffffffffffffffffffffffffffffffff163373ffffffffffffffffffffffffffffffffffffffff16146102dd576040517f08c379a00000000000000000000000000000000000000000000000000000000081526004016102d4906113a2565b60405180910390fd5b8051825114610318576040517fdaab761100000000000000000000000000000000000000000000000000000000815260040160405180910390fd5b5f5f90505b5f60025f858481518110610334576103336113c0565b5b602002602001015173ffffffffffffffffffffffffffffffffffffffff1673ffffffffffffffffffffffffffffffffffffffff1681526020019081526020015f20905062278d00815f015f9054906101000a900464ffffffffff16610399919061141a565b64ffffffffff1642111561054f57805f0160059054906101000a900473ffffffffffffffffffffffffffffffffffffffff1673ffffffffffffffffffffffffffffffffffffffff166323b872dd8584815181106103f9576103f86113c0565b5b602002602001015130868681518110610415576104146113c0565b5b60200260200101516040518463ffffffff1660e01b815260040161043b93929190611461565b6020604051808303815f875af192505050801561047657506040513d601f19601f8201168201806040525081019061047391906114cb565b60015b1561054e57801561054c5742825f015f6101000a81548164ffffffffff021916908364ffffffffff1602179055508483815181106104b7576104b66113c0565b5b602002602001015173ffffffffffffffffffffffffffffffffffffffff167f238b535295df1e3e50fc880fe244dbb1dce30974cdc273c811cda781fc6dd7fb858581518110610509576105086113c0565b5b6020026020010151845f0160059054906101000a900473ffffffffffffffffffffffffffffffffffffffff166040516105439291906114f6565b60405180910390a25b505b5b5082518161055c9061151d565b9150811061031d57505050565b7f000000000000000000000000000000000000000000000000000000000000000081565b610595610e66565b60025f8373ffffffffffffffffffffffffffffffffffffffff1673ffffffffffffffffffffffffffffffffffffffff1681526020019081526020015f206040518060400160405290815f82015f9054906101000a900464ffffffffff1664ffffffffff1664ffffffffff1681526020015f820160059054906101000a900473ffffffffffffffffffffffffffffffffffffffff1673ffffffffffffffffffffffffffffffffffffffff1673ffffffffffffffffffffffffffffffffffffffff16815250509050919050565b7f000000000000000000000000000000000000000000000000000000000000000081565b61068c610ce7565b6106955f610d6e565b565b5f6106a0610d9e565b90508073ffffffffffffffffffffffffffffffffffffffff166106c16107b8565b73ffffffffffffffffffffffffffffffffffffffff161461071957806040517f118cdaa700000000000000000000000000000000000000000000000000000000815260040161071091906112e1565b60405180910390fd5b61072281610d6e565b50565b7f000000000000000000000000000000000000000000000000000000000000000081565b5f5f5f9054906101000a900473ffffffffffffffffffffffffffffffffffffffff16905090565b7f000000000000000000000000000000000000000000000000000000000000000081565b7f000000000000000000000000000000000000000000000000000000000000000081565b5f60015f9054906101000a900473ffffffffffffffffffffffffffffffffffffffff16905090565b5f5f60038111156107f4576107f3611564565b5b82600381111561080757610806611564565b5b036108d2577f000000000000000000000000000000000000000000000000000000000000000060025f3373ffffffffffffffffffffffffffffffffffffffff1673ffffffffffffffffffffffffffffffffffffffff1681526020019081526020015f205f0160056101000a81548173ffffffffffffffffffffffffffffffffffffffff021916908373ffffffffffffffffffffffffffffffffffffffff1602179055507f00000000000000000000000000000000000000000000000000000000000000009050610bdc565b600160038111156108e6576108e5611564565b5b8260038111156108f9576108f8611564565b5b036109c4577f000000000000000000000000000000000000000000000000000000000000000060025f3373ffffffffffffffffffffffffffffffffffffffff1673ffffffffffffffffffffffffffffffffffffffff1681526020019081526020015f205f0160056101000a81548173ffffffffffffffffffffffffffffffffffffffff021916908373ffffffffffffffffffffffffffffffffffffffff1602179055507f00000000000000000000000000000000000000000000000000000000000000009050610bdb565b600260038111156109d8576109d7611564565b5b8260038111156109eb576109ea611564565b5b03610ab6577f000000000000000000000000000000000000000000000000000000000000000060025f3373ffffffffffffffffffffffffffffffffffffffff1673ffffffffffffffffffffffffffffffffffffffff1681526020019081526020015f205f0160056101000a81548173ffffffffffffffffffffffffffffffffffffffff021916908373ffffffffffffffffffffffffffffffffffffffff1602179055507f00000000000000000000000000000000000000000000000000000000000000009050610bda565b600380811115610ac957610ac8611564565b5b826003811115610adc57610adb611564565b5b03610ba7577f000000000000000000000000000000000000000000000000000000000000000060025f3373ffffffffffffffffffffffffffffffffffffffff1673ffffffffffffffffffffffffffffffffffffffff1681526020019081526020015f205f0160056101000a81548173ffffffffffffffffffffffffffffffffffffffff021916908373ffffffffffffffffffffffffffffffffffffffff1602179055507f00000000000000000000000000000000000000000000000000000000000000009050610bd9565b6040517f825e1dd700000000000000000000000000000000000000000000000000000000815260040160405180910390fd5b5b5b5b8073ffffffffffffffffffffffffffffffffffffffff163373ffffffffffffffffffffffffffffffffffffffff167fa7c790d1a78b4a259150d0567bfa25b868e2e611c735f104f3a73638717fd02c60405160405180910390a3919050565b610c43610ce7565b8060015f6101000a81548173ffffffffffffffffffffffffffffffffffffffff021916908373ffffffffffffffffffffffffffffffffffffffff1602179055508073ffffffffffffffffffffffffffffffffffffffff16610ca2610749565b73ffffffffffffffffffffffffffffffffffffffff167f38d16b8cac22d99fc7c124b9cd0de2d3fa1faef420bfe791d8c362d765e2270060405160405180910390a350565b610cef610d9e565b73ffffffffffffffffffffffffffffffffffffffff16610d0d610749565b73ffffffffffffffffffffffffffffffffffffffff1614610d6c57610d30610d9e565b6040517f118cdaa7000000000000000000000000000000000000000000000000000000008152600401610d6391906112e1565b60405180910390fd5b565b60015f6101000a81549073ffffffffffffffffffffffffffffffffffffffff0219169055610d9b81610da5565b50565b5f33905090565b5f5f5f9054906101000a900473ffffffffffffffffffffffffffffffffffffffff169050815f5f6101000a81548173ffffffffffffffffffffffffffffffffffffffff021916908373ffffffffffffffffffffffffffffffffffffffff1602179055508173ffffffffffffffffffffffffffffffffffffffff168173ffffffffffffffffffffffffffffffffffffffff167f8be0079c531659141344cd1fd0a4f28419497f9722a3daafe3b4186f6b6457e060405160405180910390a35050565b60405180604001604052805f64ffffffffff1681526020015f73ffffffffffffffffffffffffffffffffffffffff1681525090565b5f604051905090565b5f5ffd5b5f5ffd5b5f5ffd5b5f601f19601f8301169050919050565b7f4e487b71000000000000000000000000000000000000000000000000000000005f52604160045260245ffd5b610ef682610eb0565b810181811067ffffffffffffffff82111715610f1557610f14610ec0565b5b80604052505050565b5f610f27610e9b565b9050610f338282610eed565b919050565b5f67ffffffffffffffff821115610f5257610f51610ec0565b5b602082029050602081019050919050565b5f5ffd5b5f73ffffffffffffffffffffffffffffffffffffffff82169050919050565b5f610f9082610f67565b9050919050565b610fa081610f86565b8114610faa575f5ffd5b50565b5f81359050610fbb81610f97565b92915050565b5f610fd3610fce84610f38565b610f1e565b90508083825260208201905060208402830185811115610ff657610ff5610f63565b5b835b8181101561101f578061100b8882610fad565b845260208401935050602081019050610ff8565b5050509392505050565b5f82601f83011261103d5761103c610eac565b5b813561104d848260208601610fc1565b91505092915050565b5f67ffffffffffffffff8211156110705761106f610ec0565b5b602082029050602081019050919050565b5f819050919050565b61109381611081565b811461109d575f5ffd5b50565b5f813590506110ae8161108a565b92915050565b5f6110c66110c184611056565b610f1e565b905080838252602082019050602084028301858111156110e9576110e8610f63565b5b835b8181101561111257806110fe88826110a0565b8452602084019350506020810190506110eb565b5050509392505050565b5f82601f8301126111305761112f610eac565b5b81356111408482602086016110b4565b91505092915050565b5f5f6040838503121561115f5761115e610ea4565b5b5f83013567ffffffffffffffff81111561117c5761117b610ea8565b5b61118885828601611029565b925050602083013567ffffffffffffffff8111156111a9576111a8610ea8565b5b6111b58582860161111c565b9150509250929050565b5f819050919050565b5f6111e26111dd6111d884610f67565b6111bf565b610f67565b9050919050565b5f6111f3826111c8565b9050919050565b5f611204826111e9565b9050919050565b611214816111fa565b82525050565b5f60208201905061122d5f83018461120b565b92915050565b5f6020828403121561124857611247610ea4565b5b5f61125584828501610fad565b91505092915050565b5f64ffffffffff82169050919050565b6112778161125e565b82525050565b611286816111fa565b82525050565b604082015f8201516112a05f85018261126e565b5060208201516112b3602085018261127d565b50505050565b5f6040820190506112cc5f83018461128c565b92915050565b6112db81610f86565b82525050565b5f6020820190506112f45f8301846112d2565b92915050565b60048110611306575f5ffd5b50565b5f81359050611317816112fa565b92915050565b5f6020828403121561133257611331610ea4565b5b5f61133f84828501611309565b91505092915050565b5f82825260208201905092915050565b7f4f6e6c79204352452063616e2063616c6c20746869732066756e6374696f6e005f82015250565b5f61138c601f83611348565b915061139782611358565b602082019050919050565b5f6020820190508181035f8301526113b981611380565b9050919050565b7f4e487b71000000000000000000000000000000000000000000000000000000005f52603260045260245ffd5b7f4e487b71000000000000000000000000000000000000000000000000000000005f52601160045260245ffd5b5f6114248261125e565b915061142f8361125e565b9250828201905064ffffffffff81111561144c5761144b6113ed565b5b92915050565b61145b81611081565b82525050565b5f6060820190506114745f8301866112d2565b61148160208301856112d2565b61148e6040830184611452565b949350505050565b5f8115159050919050565b6114aa81611496565b81146114b4575f5ffd5b50565b5f815190506114c5816114a1565b92915050565b5f602082840312156114e0576114df610ea4565b5b5f6114ed848285016114b7565b91505092915050565b5f6040820190506115095f830185611452565b611516602083018461120b565b9392505050565b5f61152782611081565b91507fffffffffffffffffffffffffffffffffffffffffffffffffffffffffffffffff8203611559576115586113ed565b5b600182019050919050565b7f4e487b71000000000000000000000000000000000000000000000000000000005f52602160045260245ffdfea264697066735822122076eab5b7b3bad4e3b2236e37afca0331cf8f8ca42081001bcfc14a5ab44bfa0464736f6c634300081c0033","linkReferences":{}},"methodIdentifiers":{"CRE()":"653bba64","USDC()":"89a30271","USDT()":"c54e44eb","WBTC()":"4dede3de","WETH()":"ad5c4648","acceptOwnership()":"79ba5097","choseToken(uint8)":"e851b6e5","getUserInfo(address)":"6386c1c7","owner()":"8da5cb5b","pay(address[],uint256[])":"084ce708","pendingOwner()":"e30c3978","renounceOwnership()":"715018a6","transferOwnership(address)":"f2fde38b"},"id":32}